:100000000C945D000C9485000C9485000C94850084
:100010000C9485000C9485000C9485000C9485004C
:100020000C9485000C9485000C9485000C9485003C
:100030000C9485000C9485000C9485000C9485002C
:100040000C94AA040C9485000C941A050C94F404E6
:100050000C9485000C9485000C9485000C9485000C
:100060000C944C050C94850000000000240027002F
:100070002A0000000000250028002B0004040404CE
:100080000404040402020202020203030303030342
:10009000010204081020408001020408102001021F
:1000A00004081020000000080002010000030407FB
:1000B00000000000000000006B0611241FBECFEFFF
:1000C000D8E0DEBFCDBF11E0A0E0B1E0E0E5F1E1B6
:1000D00002C005900D92AA34B107D9F722E0AAE434
:1000E000B1E001C01D92A03CB207E1F710E0CDE500
:1000F000D0E004C02197FE010E94A008CC35D107B2
:10010000C9F70E94B3060C94A6080C94000090E076
:10011000FC01EC55FF4F2491FC01E057FF4F349157
:10012000FC01E458FF4FE491EE23C9F0222339F09B
:10013000233001F1A8F4213019F1223029F1F0E047
:10014000EE0FFF1FEE58FF4FA591B4918FB7F894B3
:10015000EC91611126C030953E233C938FBF0895EA
:100160002730A9F02830C9F0243049F78091800069
:100170008F7D03C0809180008F7780938000DFCFD8
:1001800084B58F7784BDDBCF84B58F7DFBCF809125
:10019000B0008F778093B000D2CF8091B0008F7D78
:1001A000F9CF3E2BDACFCF93DF9390E0FC01E057FD
:1001B000FF4F249184589F4FFC0184918823D1F0F4
:1001C00090E0880F991FFC01E859FF4FA591B49169
:1001D000FC01EE58FF4FC591D49161110EC09FB73D
:1001E000F8948C91E22FE0958E238C932881E22362
:1001F000E8839FBFDF91CF9108958FB7F894EC917A
:10020000E22BEC938FBFF6CF3FB7F89480910702B3
:1002100090910802A0910902B0910A0226B5A89B0C
:1002200005C02F3F19F00196A11DB11D3FBFBA2F88
:10023000A92F982F8827BC01CD01620F711D811D48
:10024000911D42E0660F771F881F991F4A95D1F7CD
:1002500008958F929F92AF92BF92CF92DF92EF92CA
:10026000FF924B015C010E9404016B017C010E9422
:1002700004016C197D098E099F09683E7340810550
:100280009105A8F321E0821A9108A108B10888EE2F
:10029000C80E83E0D81EE11CF11C81149104A10456
:1002A000B10429F7FF90EF90DF90CF90BF90AF900F
:1002B0009F908F900895AF92BF92CF92DF92EF926E
:1002C000FF920F931F93CF93DF936C017B018B0100
:1002D000040F151FEB015E01AE18BF08C017D10750
:1002E00059F06991D601ED91FC910190F081E02DDA
:1002F000C6010995892B79F7C501DF91CF911F912F
:100300000F91FF90EF90DF90CF90BF90AF90089546
:1003100008950895FC01538D448D252F30E0842FDE
:1003200090E0821B930B541710F0CF96089501971D
:100330000895FC01918D828D981761F0A28DAE0F0A
:10034000BF2FB11D5D968C91928D9F5F9F73928F91
:1003500090E008958FEF9FEF0895FC01918D828DBD
:10036000981731F0828DE80FF11D858D90E008958A
:100370008FEF9FEF0895FC01918D228D892F90E0E2
:10038000805C9F4F821B91098F73992708958BE0A2
:1003900092E00E94BB0121E0892B09F420E0822F2A
:1003A000089580E090E0892B29F00E94C701811117
:1003B0000C9400000895FC01A48DA80FB92FB11D65
:1003C000A35ABF4F2C91848D90E001968F7399278B
:1003D000848FA689B7892C93A089B1898C91837069
:1003E00080648C93938D848D981306C00288F38962
:1003F000E02D80818F7D80830895EF92FF920F938F
:100400001F93CF93DF93EC0181E0888F9B8D8C8DC0
:1004100098131AC0E889F989808185FF15C09FB7B4
:10042000F894EE89FF896083E889F9898081837077
:10043000806480839FBF81E090E0DF91CF911F9126
:100440000F91FF90EF900895F62E0B8D10E00F5F47
:100450001F4F0F731127E02E8C8D8E110CC00FB61D
:1004600007FCFACFE889F989808185FFF5CFCE01B5
:100470000E94DB01F1CFEB8DEC0FFD2FF11DE35A54
:10048000FF4FF0829FB7F8940B8FEA89FB89808138
:100490008062CFCFCF93DF93EC01888D8823B9F0B2
:1004A000AA89BB89E889F9898C9185FD03C080817F
:1004B00086FD0DC00FB607FCF7CF8C9185FFF2CFFC
:1004C000808185FFEDCFCE010E94DB01E9CFDF9176
:1004D000CF91089585ED8093BC008091BC0084FD90
:1004E000FCCF1092F90108952091AC01260F33271B
:1004F000331F21323105ECF42091F901FC0190E029
:1005000080E0243069F082E00895A091AC0121914F
:10051000AC0144575E4FA40FB52FB11D2C9301962B
:10052000861798F38091AC01680F6093AC0180E06E
:10053000089581E008950895E091FD018091FC0106
:10054000E81730F4F0E0E459FE4F808190E0089520
:100550008FEF9FEF08959091FD018091FC012FEFA7
:100560003FEF981748F4E92FF0E0E459FE4F20815F
:1005700030E09F5F9093FD01C90108958091FC01D7
:100580009091FD01891B990B0895CF92DF92EF9214
:10059000FF920F931F93CF93DF937C01CB018A01CE
:1005A00020916B01222389F0EB016B01C40ED51E53
:1005B000CC15DD0569F06991D701ED91FC910190B1
:1005C000F081E02DC7010995F3CF642F0E947402DA
:1005D000C801DF91CF911F910F91FF90EF90DF90B5
:1005E000CF900895CF93DF931F92CDB7DEB7698385
:1005F00020916B012223F9F02091FA01203258F06A
:1006000021E030E0FC013383228390E080E00F9012
:10061000DF91CF9108958091FB01E82FF0E0E55B39
:10062000FE4F998190838F5F8093FB018093FA0145
:1006300081E090E0ECCF61E0CE0101960E9474026F
:10064000F7CFCF93FC01C48121E020936B01C093CD
:100650004A011092FB011092FA018385682B88EA07
:1006600092E00E94F2029091FA01913208F03FC0AC
:100670008091F9018111FCCF82E08093F90181E042
:100680008093F8018FEF8093CF011092F101909346
:10069000F001ABE4B1E0E0EDF1E080E098132FC0B1
:1006A0001092F2018091F201CC0FC82BC093F2019D
:1006B0008091F701813039F51092F7018091F201B4
:1006C0008093BB008091BC0083FDF8CF85EC8093C4
:1006D000BC008091F9018230E1F38091CF018F3F1E
:1006E00031F08091CF01803211F08091CF011092D2
:1006F000FB011092FA0110926B01CF9108952D9198
:1007000021938F5FCBCF85EEE2CF089590E080E01C
:1007100008958F929F92AF92BF920F931F93CF93A2
:10072000DF93CDB7DEB7A1970FB6F894DEBF0FBE4B
:10073000CDBF19A2423008F44AE08E010F5D1F4F71
:10074000842E912CB12CA12CA50194010E94680843
:10075000E62FB901CA01EA3044F5E05DD801EE9315
:100760008D01232B242B252B79F790E080E0109727
:1007700069F0FD0101900020E9F73197AF014A1BB4
:100780005B0BBD0184EB92E00E945B01A1960FB66A
:10079000F894DEBF0FBECDBFDF91CF911F910F91B7
:1007A000BF90AF909F908F900895E95CD7CF0F9343
:1007B0001F93CF938C01C62F0E9421036C2F64607E
:1007C000C8010E9421036C2F6B7FC8010E94210386
:1007D00083EC90E00197F1F7CF911F910F9108956D
:1007E0000F931F93CF93DF938C01D62FC42F607F7D
:1007F000642B0E94D70380E1D89FB00111246C2B99
:10080000C801DF91CF911F910F910C94D703CF9323
:10081000DF93CDB7DEB728970FB6F894DEBF0FBED3
:10082000CDBF98E0E0E0F1E0DE01119601900D927D
:100830009A95E1F79091BC02981708F48FEF90E039
:10084000880F991F21E030E02C0F3D1F820F931F6E
:10085000FC016081606840E084EB92E028960FB66E
:10086000F894DEBF0FBECDBFDF91CF910C94F003A3
:10087000CF93DF93823028F09091B90298609093E3
:10088000B9028093BC0262E370E080E090E00E94D5
:1008900029016091BF0284EB92E00E94210368EE7F
:1008A00073E080E090E00E94290160E384EB92E035
:1008B0000E94D703CBE4D6E4CE010197F1F760E3C1
:1008C00084EB92E00E94D7032197F1F760E384EB79
:1008D00092E00E94D70383E592E00197F1F760E28E
:1008E00084EB92E00E94D7036091B902606240E01D
:1008F00084EB92E00E94F00384E08093BA0240E02F
:100900006CE084EB92E00E94F00340E061E084EB55
:1009100092E00E94F003CBE3DFE1CE010197F1F713
:1009200082E08093BB0240E066E084EB92E00E94AC
:10093000F00340E062E084EB92E00E94F003219734
:10094000F1F7DF91CF91089541E00E94F00381E03B
:1009500090E008951F920F920FB60F9211242F93DB
:100960003F938F939F93AF93BF9380910302909196
:100970000402A0910502B09106023091020223E028
:10098000230F2D3758F50196A11DB11D20930202AA
:100990008093030290930402A0930502B093060291
:1009A0008091070290910802A0910902B0910A0279
:1009B0000196A11DB11D8093070290930802A09398
:1009C0000902B0930A02BF91AF919F918F913F911D
:1009D0002F910F900FBE0F901F90189526E8230FB0
:1009E0000296A11DB11DD2CF1F920F920FB60F928A
:1009F00011242F933F934F935F936F937F938F9324
:100A00009F93AF93BF93EF93FF938BE092E00E948D
:100A1000DB01FF91EF91BF91AF919F918F917F91FA
:100A20006F915F914F913F912F910F900FBE0F905B
:100A30001F9018951F920F920FB60F9211242F93AB
:100A40008F939F93EF93FF93E0911B02F0911C0211
:100A50008081E0912102F091220282FD1BC09081F1
:100A6000809124028F5F8F7320912502821741F0BD
:100A7000E0912402F0E0E55FFD4F958F8093240222
:100A8000FF91EF919F918F912F910F900FBE0F903B
:100A90001F9018958081F4CF1F920F920FB60F927E
:100AA00011242F933F934F935F936F937F938F9373
:100AB0009F93AF93BF93EF93FF938091B900887F8B
:100AC000803609F44AC0F0F5883209F4A7C018F559
:100AD000803109F49BC0B8F4882309F4F9C0883048
:100AE00009F494C0FF91EF91BF91AF919F918F91C5
:100AF0007F916F915F914F913F912F910F900FBE1A
:100B00000F901F901895883109F488C0803251F7F2
:100B10008093CF0114C0803409F49DC040F4803329
:100B2000B9F38833F9F68093CF0185ECB0C08035F6
:100B300009F485C0883509F496C0883499F60E9476
:100B40006A02D0CF883909F48CC038F5883729F08B
:100B500050F4883611F0803729F683E08093F9014C
:100B60001092CE0157C0883809F47BC0803919F043
:100B7000803809F0B7CF8091CE01803208F071C083
:100B8000E091CE0181E08E0F8093CE018091BB0079
:100B9000F0E0E255FE4F80833DC0803B39F0E0F449
:100BA000803A09F479C0883A09F09CCF84E08093B8
:100BB000F9011092AD011092AC01E091F501F091B4
:100BC000F60109958091AC0181110FC081E08093FD
:100BD000AC0110928C0109C0803C09F4A6CF883C7E
:100BE00009F4A3CF883B09F07DCFE091AD0181E00E
:100BF0008E0F8093AD01F0E0E457FE4F808180932B
:100C0000BB009091AD018091AC0129C08091F201AF
:100C10008093BB0085EC8093BC0064CF9091F10180
:100C20008091F001981758F5E091F10181E08E0F65
:100C30008093F101F0E0E053FE4F8081E9CFE09135
:100C4000F10181E08E0F8093F1018091BB00F0E013
:100C5000E053FE4F80839091F1018091F00198174D
:100C6000C8F285E8D8CFE091F10181E08E0F809342
:100C7000F1018091BB00F0E0E053FE4F8083809152
:100C8000F80181115CCF81E08093F70184EA8093C1
:100C9000BC001092F90126CF85EC8093BC00109225
:100CA000F9018091CE01803230F4E091CE01F0E084
:100CB000E255FE4F10826091CE0170E0E091F301A9
:100CC000F091F4018EEA91E009951092CE010ACFDD
:100CD0001092CF0134CFEBE0F2E01382128288EE63
:100CE00093E0A0E0B0E084839583A683B7832CE0F3
:100CF00031E03183208325EC30E03587248724ECF4
:100D000030E03787268720EC30E0318B208B21ECD8
:100D100030E0338B228B22EC30E0358B248B26ECB9
:100D200030E0378B268B118E128E138E148EE8EAEC
:100D3000F2E01382128284839583A683B7838EE1C7
:100D400091E091838083E4EBF2E01382128280E3EE
:100D500091E0918380838FE3848380E1818782E0C7
:100D6000828713860895789484B5826084BD84B5A3
:100D7000816084BD85B5826085BD85B5816085BD96
:100D800080916E00816080936E001092810080914E
:100D900081008260809381008091810081608093D6
:100DA0008100809180008160809380008091B100FB
:100DB00084608093B1008091B00081608093B00026
:100DC00080917A00846080937A0080917A008260BA
:100DD00080937A0080917A00816080937A0080917C
:100DE0007A00806880937A001092C10082E00E94AD
:100DF00038041092FD011092FC011092FB01109238
:100E0000FA011092F90181E08093F8011092F70144
:100E100061E082E10E94870061E083E10E94870037
:100E20008091B9008E7F8093B9008091B9008D7F49
:100E30008093B90088E48093B80085E48093BC0077
:100E400088E891E09093F6018093F50189E891E0BC
:100E50009093F4018093F3011092B9028091BE0245
:100E60000E94380488E08093BF0260E084EB92E047
:100E70000E94210380E00E9407044BE050E068E3F9
:100E800071E084EB92E00E945B0161E089E00E94E6
:100E9000D30060E080E10E94D300E0911B02F0915A
:100EA0001C0282E08083E0911702F0911802108208
:100EB000E0911902F0911A028FEC808310922302C4
:100EC000E0911F02F091200286E08083E0911D02F4
:100ED000F0911E02808180618083E0911D02F0917B
:100EE0001E02808188608083E0911D02F0911E02C5
:100EF000808180688083E0911D02F0911E028081D4
:100F00008F7D808382E4382E88248A9493E0992E02
:100F1000A12CB12C2DEAC22E20E0D22E30E0E32EFF
:100F200030E0F32E30927C0080917A0080648093D0
:100F30007A0080917A0086FDFCCF80917800009144
:100F40007900102F082F2FEF30E0D8010E94990868
:100F5000A50194010E944908722E632EC22FD32F3F
:100F6000D093FF01C093FE012AE030E0D8010E9437
:100F70009908A50194010E94490830930102209329
:100F8000000261E089E00E94D3002097C1F560E093
:100F900089E00E94870081E00E94070440900002DF
:100FA00050900102052C000C660877084AE0C30146
:100FB000B20177FE0EC041E06DE284EB92E00E9448
:100FC000F00366277727CB0164197509860997090D
:100FD0004AE00E94890345E050E064E471E084EB5C
:100FE00092E00E945B01E114F10409F49BCF0E949E
:100FF000C701882309F496CF0E94000093CFCF3F0A
:10100000D10511F461E0C4CFF6018491833029F158
:1010100040F48130C1F08230D9F0C038D10594F766
:10102000B6CF873031F1883061F18430B1F78091EB
:101030008000806280938000872D962D90938B0096
:1010400080938A00A8CF84B5806884BD77BCA3CF85
:1010500084B5806284BD78BC9ECF8091800080681A
:1010600080938000872D962D90938900809388002F
:1010700092CF8091B00080688093B0007092B300EE
:101080008ACF8091B00080628093B0007092B400EB
:1010900082CF052E97FB1EF400940E94600857FD36
:1010A00007D00E94680807FC03D04EF40C94600837
:1010B00050954095309521953F4F4F4F5F4F089584
:1010C00090958095709561957F4F8F4F9F4F0895B4
:1010D000A1E21A2EAA1BBB1BFD010DC0AA1FBB1F3C
:1010E000EE1FFF1FA217B307E407F50720F0A21BAE
:1010F000B30BE40BF50B661F771F881F991F1A941B
:1011000069F760957095809590959B01AC01BD0144
:10111000CF010895A29FB001B39FC001A39F700D9E
:10112000811D1124911DB29F700D811D1124911DEF
:1011300008950E948A08B7FF0895821B930B0895B3
:10114000EE0FFF1F0590F491E02D0994F894FFCF66
:10115000000040001400540000000000FD015B018D
:101160008A014A02BB019901AD0100000000F202B0
:10117000C50286039B02BE02AB029C020000000077
:10118000A4045B01860385034252494748544E45F7
:0A11900053533A00202020202000D5
:00000001FF
