:100000000C9462000C948A000C948A000C948A0070
:100010000C948A000C948A000C948A000C948A0038
:100020000C948A000C948A000C948A000C948A0028
:100030000C948A000C948A000C948A000C948A0018
:100040000C94AD050C948A000C941D060C94F705D5
:100050000C948A000C948A000C948A000C948A00F8
:100060000C948E040C948A000000000024002700E9
:100070002A000000000023002600290000000000E4
:10008000250028002B0004040404040404040202D4
:100090000202020203030303030301020408102007
:1000A0004080010204081020010204081020000012
:1000B0000008000201000003040700000000000027
:1000C00000004F0611241FBECFEFD8E0DEBFCDBF2A
:1000D00011E0A0E0B1E0E0E6F0E102C005900D9291
:1000E000A834B107D9F722E0A8E4B1E001C01D921D
:1000F000A03CB207E1F710E0C2E6D0E004C02197CF
:10010000FE010E942808C136D107C9F70E94970650
:100110000C942E080C94000085ED8093BC00809117
:10012000BC0084FDFCCF1092E50108952091BF0131
:10013000260F3327331F21323105ECF42091E501DE
:10014000FC0190E080E0243069F082E00895A09105
:10015000BF012191AC0143565E4FA40FB52FB11DD5
:100160002C930196861798F38091BF01680F6093D6
:10017000BF0180E0089581E00895089508950895ED
:10018000E0919A0180919901E81730F4F0E0E75886
:10019000FE4F808190E008958FEF9FEF089590913A
:1001A0009A01809199012FEF3FEF981748F4E92FBA
:1001B000F0E0E758FE4F208130E09F5F90939A0176
:1001C000C90108958091990190919A01891B990B19
:1001D0000895CF92DF92EF92FF920F931F93CF93E8
:1001E000DF937C01CB018A0120917801222389F0E1
:1001F000EB016B01C40ED51ECC15DD0569F06991CC
:10020000D701ED91FC910190F081E02DC701099596
:10021000F3CF642F0E949600C801DF91CF911F9108
:100220000F91FF90EF90DF90CF900895CF93DF93E1
:100230001F92CDB7DEB76983209178012223F9F0B0
:1002400020919B01203258F021E030E0FC01338303
:10025000228390E080E00F90DF91CF91089580910C
:100260009C01E82FF0E0E85AFE4F998190838F5F60
:1002700080939C0180939B0181E090E0ECCF61E052
:10028000CE0101960E949600F7CF833081F028F4CA
:10029000813099F08230A9F008958730A9F0883034
:1002A000C9F08430B1F4809180008F7D03C08091CB
:1002B00080008F7780938000089584B58F7784BD08
:1002C000089584B58F7DFBCF8091B0008F778093A8
:1002D000B00008958091B0008F7DF9CFCF93DF9368
:1002E000282F30E0F901E255FF4F8491F901E656DD
:1002F000FF4FD491F901EA57FF4FC491CC2389F005
:1003000081110E944501EC2FF0E0EE0FFF1FE45831
:10031000FF4FA591B4918FB7F894EC91DE2BDC934D
:100320008FBFDF91CF9108953FB7F894809154012A
:1003300090915501A0915601B091570126B5A89B07
:1003400005C02F3F19F00196A11DB11D3FBFBA2F67
:10035000A92F982F8827BC01CD01620F711D811D27
:10036000911D42E0660F771F881F991F4A95D1F7AC
:1003700008958F929F92AF92BF92CF92DF92EF92A9
:10038000FF924B015C010E9494016B017C010E9471
:1003900094016C197D098E099F09683E734081059F
:1003A0009105A8F321E0821A9108A108B10888EE0E
:1003B000C80E83E0D81EE11CF11C81149104A10435
:1003C000B10429F7FF90EF90DF90CF90BF90AF90EE
:1003D0009F908F900895AF92BF92CF92DF92EF924D
:1003E000FF920F931F93CF93DF936C017B018B01DF
:1003F000040F151FEB015E01AE18BF08C017D1072F
:1004000059F06991D601ED91FC910190F081E02DB8
:10041000C6010995892B79F7C501DF91CF911F910D
:100420000F91FF90EF90DF90CF90BF90AF90089525
:10043000FC01538D448D252F30E0842F90E0821BEA
:10044000930B541710F0CF96089501970895FC016F
:10045000918D828D981761F0A28DAE0FBF2FB11DC7
:100460005D968C91928D9F5F9F73928F90E008951F
:100470008FEF9FEF0895FC01918D828D981731F0D9
:10048000828DE80FF11D858D90E008958FEF9FEF2D
:100490000895FC01918D228D892F90E0805C9F4F03
:1004A000821B91098F739927089587E192E00E943A
:1004B000490221E0892B09F420E0822F089580E091
:1004C00090E0892B29F00E94550281110C940000C4
:1004D0000895FC01A48DA80FB92FB11DA35ABF4FD9
:1004E0002C91848D90E001968F739927848FA68933
:1004F000B7892C93A089B1898C91837080648C9387
:10050000938D848D981306C00288F389E02D808135
:100510008F7D80830895EF92FF920F931F93CF9367
:10052000DF93EC0181E0888F9B8D8C8D98131AC02E
:10053000E889F989808185FF15C09FB7F894EE8915
:10054000FF896083E889F989808183708064808372
:100550009FBF81E090E0DF91CF911F910F91FF90BD
:10056000EF900895F62E0B8D10E00F5F1F4F0F7365
:100570001127E02E8C8D8E110CC00FB607FCFACF20
:10058000E889F989808185FFF5CFCE010E94690253
:10059000F1CFEB8DEC0FFD2FF11DE35AFF4FF082F1
:1005A0009FB7F8940B8FEA89FB8980818062CFCF57
:1005B000CF93DF93EC01888D8823B9F0AA89BB899A
:1005C000E889F9898C9185FD03C0808186FD0DC085
:1005D0000FB607FCF7CF8C9185FFF2CF808185FFA6
:1005E000EDCFCE010E946902E9CFDF91CF9108954E
:1005F000CF93FC01C48121E020937801C09348018E
:1006000010929C0110929B018385682B8BE092E0F5
:100610000E94160190919B01913208F03FC0809199
:10062000E5018111FCCF82E08093E50181E08093B8
:10063000E7018FEF8093E401109209029093080282
:10064000A8E5B1E0E8EEF1E080E098132FC0109249
:100650000A0280910A02CC0FC82BC0930A02809133
:10066000E601813039F51092E60180910A0280930B
:10067000BB008091BC0083FDF8CF85EC8093BC006B
:100680008091E5018230E1F38091E4018F3F31F008
:100690008091E401803211F08091E40110929C017C
:1006A00010929B0110927801CF9108952D91219382
:1006B0008F5FCBCF85EEE2CF089590E080E0089584
:1006C000FB0101900020E9F73197AF01461B570B62
:1006D000DC01ED91FC910280F381E02D09948F9271
:1006E0009F92AF92BF92EF92FF920F931F93CF937F
:1006F000DF93CDB7DEB7A1970FB6F894DEBF0FBE7C
:10070000CDBF7C01FA01CB0119A2223008F42AE006
:100710008E010F5D1F4F822E912CB12CA12CBF0199
:10072000A50194010E940608F901CA016A300CF57E
:10073000605DD8016E938D01232B242B252B79F737
:1007400090E080E0109721F0BD01C7010E94600396
:10075000A1960FB6F894DEBF0FBECDBFDF91CF914B
:100760001F910F91FF90EF90BF90AF909F908F904F
:100770000895695CDECF0F931F93CF938C01C62F32
:100780000E94F8026C2F6460C8010E94F8026C2F6E
:100790006B7FC8010E94F80283EC90E00197F1F7AB
:1007A000CF911F910F9108950F931F93CF93DF93D4
:1007B0008C01D62FC42F607F642B0E94BB0380E185
:1007C000D89FB00111246C2BC801DF91CF911F91EC
:1007D0000F910C94BB03CF93DF93CDB7DEB728976F
:1007E0000FB6F894DEBF0FBECDBF98E0E0E0F1E0B9
:1007F000DE01119601900D929A95E1F79091BC025D
:10080000981708F48FEF90E0880F991F21E030E0EF
:100810002C0F3D1F820F931FFC016081606840E038
:1008200084EB92E028960FB6F894DEBF0FBECDBFE2
:10083000DF91CF910C94D403CF93DF93823028F0D3
:100840009091B90298609093B9028093BC0262E3E0
:1008500070E080E090E00E94B9016091BF0284EBFB
:1008600092E00E94F80268EE73E080E090E00E945F
:10087000B90160E384EB92E00E94BB03CBE4D6E4D1
:10088000CE010197F1F760E384EB92E00E94BB0395
:100890002197F1F760E384EB92E00E94BB0383E5CC
:1008A00092E00197F1F760E284EB92E00E94BB03D3
:1008B0006091B902606240E084EB92E00E94D40350
:1008C00084E08093BA0240E06CE084EB92E00E9406
:1008D000D40340E061E084EB92E00E94D403CBE3D8
:1008E000DFE1CE010197F1F782E08093BB0240E0A7
:1008F00066E084EB92E00E94D40340E062E084EB87
:1009000092E00E94D4032197F1F7DF91CF910895EF
:1009100041E00E94D40381E090E008951F920F927D
:100920000FB60F9211242F933F934F935F936F93C2
:100930007F938F939F93AF93BF93EF93FF93809198
:10094000B900887F803609F44AC0F0F5883209F48E
:10095000A7C018F5803109F49BC0B8F4882309F4C6
:10096000F9C0883009F494C0FF91EF91BF91AF9125
:100970009F918F917F916F915F914F913F912F91B7
:100980000F900FBE0F901F901895883109F488C002
:10099000803251F78093E40114C0803409F49DC083
:1009A00040F48033B9F38833F9F68093E40185ECA1
:1009B000B0C0803509F485C0883509F496C0883404
:1009C00099F60E948C00D0CF883909F48CC038F594
:1009D000883729F050F4883611F0803729F683E003
:1009E0008093E5011092E30157C0883809F47BC079
:1009F000803919F0803809F0B7CF8091E301803257
:100A000008F071C0E091E30181E08E0F8093E30173
:100A10008091BB00F0E0ED53FE4F80833DC0803BF2
:100A200039F0E0F4803A09F479C0883A09F09CCFB3
:100A300084E08093E5011092C0011092BF01E09123
:100A4000BD01F091BE0109958091BF0181110FC0D8
:100A500081E08093BF0110929D0109C0803C09F4A0
:100A6000A6CF883C09F4A3CF883B09F07DCFE09165
:100A7000C00181E08E0F8093C001F0E0E356FE4F8D
:100A800080818093BB009091C0018091BF0129C0FB
:100A900080910A028093BB0085EC8093BC0064CFF8
:100AA0009091090280910802981758F5E091090287
:100AB00081E08E0F80930902F0E0E851FE4F8081C3
:100AC000E9CFE091090281E08E0F809309028091C5
:100AD000BB00F0E0E851FE4F8083909109028091C5
:100AE00008029817C8F285E8D8CFE091090281E0A2
:100AF0008E0F809309028091BB00F0E0E851FE4F19
:100B000080838091E70181115CCF81E08093E601D1
:100B100084EA8093BC001092E50126CF85EC809397
:100B2000BC001092E5018091E301803230F4E09145
:100B3000E301F0E0ED53FE4F10826091E30170E0BD
:100B4000E091C101F091C20183EC91E0099510920E
:100B5000E3010ACF1092E40134CF1F920F920FB637
:100B60000F9211242F933F938F939F93AF93BF9333
:100B70008091500190915101A0915201B091530187
:100B800030914F0123E0230F2D3758F50196A11D19
:100B9000B11D20934F018093500190935101A09378
:100BA0005201B09353018091540190915501A0914D
:100BB0005601B09157010196A11DB11D80935401BA
:100BC00090935501A0935601B0935701BF91AF91F7
:100BD0009F918F913F912F910F900FBE0F901F907B
:100BE000189526E8230F0296A11DB11DD2CF1F92A2
:100BF0000F920FB60F9211242F933F934F935F9351
:100C00006F937F938F939F93AF93BF93EF93FF93D4
:100C100087E192E00E946902FF91EF91BF91AF914D
:100C20009F918F917F916F915F914F913F912F9104
:100C30000F900FBE0F901F9018951F920F920FB636
:100C40000F9211242F938F939F93EF93FF93E09133
:100C50002702F09128028081E0912D02F0912E026E
:100C600082FD1BC09081809130028F5F8F73209135
:100C70003102821741F0E0913002F0E0E95EFD4F71
:100C8000958F80933002FF91EF919F918F912F91DB
:100C90000F900FBE0F901F9018958081F4CFEBE05E
:100CA000F2E01382128288EE93E0A0E0B0E0848349
:100CB0009583A683B7832CE031E031832083E7E17D
:100CC000F2E01382128284839583A683B7838EE138
:100CD00091E09183808385EC90E09587848784EC14
:100CE00090E09787868780EC90E0918B808B81ECF9
:100CF00090E0938B828B82EC90E0958B848B86ECDA
:100D000090E0978B868B118E128E138E148EE4EBEF
:100D1000F2E01382128280E391E0918380838FE37B
:100D2000848380E1818782E08287138608957894A6
:100D300084B5826084BD84B5816084BD85B58260E0
:100D400085BD85B5816085BD80916E008160809391
:100D50006E001092810080918100826080938100FA
:100D6000809181008160809381008091800081600A
:100D7000809380008091B10084608093B100809165
:100D8000B00081608093B00080917A00846080938D
:100D90007A0080917A00826080937A0080917A0054
:100DA000816080937A0080917A00806880937A00D5
:100DB0001092C10082E00E941C0410929A011092CD
:100DC000990110929C0110929B011092E50181E023
:100DD0008093E7011092E60182E10E946E0183E1B7
:100DE0000E946E018091B9008E7F8093B90080913E
:100DF000B9008D7F8093B90088E48093B80085E4C2
:100E00008093BC008DEB90E09093BE018093BD0178
:100E10008EEB90E09093C2018093C1011092B902D1
:100E20008091BE020E941C0488E08093BF0260E0B3
:100E300084EB92E00E94F80280E00E94EB0368E3FA
:100E400071E084EB92E00E946003C1EAD0E0FE0111
:100E500024910DE810E0F80184918823C9F090E016
:100E6000880F991FFC01E859FF4FA591B491FC012F
:100E7000E458FF4F459154913FB7F8949C91822FCD
:100E8000809598239C93FA019081892380833FBFAA
:100E9000E0912702F091280282E08083E091230212
:100EA000F09124021082E0912502F09126028FEC4D
:100EB000808310922F02E0912B02F0912C0286E0A9
:100EC0008083E0912902F0912A02808180618083F1
:100ED000E0912902F0912A02808188608083E0916C
:100EE0002902F0912A02808180688083E0912902A2
:100EF000F0912A0280818F7D808395EBE92E90E02E
:100F0000F92E20E0C22E20E0D22EF7018491FE01BE
:100F1000A490F801B49050E040E0BB2099F081111A
:100F20000E944501EB2DF0E0EE0FFF1FEE58FF4F42
:100F3000A591B4918C91A82291E080E009F490E011
:100F4000492F582F50934E0140934D01052E000C10
:100F5000660B770B2AE087E192E00E946F0364E45E
:100F600071E087E192E00E946003A0904D01B09093
:100F70004E01F1E0AF16B10499F580914B019091CB
:100F80004C01892B69F58090490190904A018FEFBF
:100F9000881A980A90924A018092490181E00E9441
:100FA000EB03B0924C01A0924B01092C000CAA0853
:100FB000BB082AE0B501A401B7FE0EC041E06DE216
:100FC00084EB92E00E94D40344275527BA014819C4
:100FD00059096A097B092AE084EB92E00E946F03B9
:100FE00080914D0190914E01892B21F410924C017A
:100FF00010924B01C114D10409F487CF0E9455020D
:10100000882309F482CF0E9400007FCFA1E21A2E2C
:10101000AA1BBB1BFD010DC0AA1FBB1FEE1FFF1F9C
:10102000A217B307E407F50720F0A21BB30BE40BEC
:10103000F50B661F771F881F991F1A9469F7609533
:101040007095809590959B01AC01BD01CF010895ED
:10105000EE0FFF1F0590F491E02D0994F894FFCF57
:101060000000400014005400000000001601E900D8
:101070005D03BF00E200CF00C000000000008B0253
:10108000EB011802D802490227023B0200000000CF
:101090008804EB015D035C0348656C6C6F20576F3F
:0810A000726C64000D0A0000EF
:00000001FF
